{
	"contractName": "ICOLaunchpad",
	"abi": [
		{
			"inputs": [],
			"stateMutability": "nonpayable",
			"type": "constructor"
		},
		{
			"anonymous": false,
			"inputs": [
				{
					"indexed": false,
					"internalType": "address",
					"name": "buyer",
					"type": "address"
				},
				{
					"indexed": false,
					"internalType": "uint256",
					"name": "numberofTokens",
					"type": "uint256"
				}
			],
			"name": "buyT",
			"type": "event"
		},
		{
			"anonymous": false,
			"inputs": [
				{
					"indexed": false,
					"internalType": "uint256",
					"name": "",
					"type": "uint256"
				}
			],
			"name": "cal",
			"type": "event"
		},
		{
			"anonymous": false,
			"inputs": [
				{
					"indexed": false,
					"internalType": "address",
					"name": "paddress",
					"type": "address"
				},
				{
					"indexed": false,
					"internalType": "address",
					"name": "tokenOwneraddress",
					"type": "address"
				},
				{
					"indexed": false,
					"internalType": "uint256",
					"name": "amount",
					"type": "uint256"
				},
				{
					"indexed": false,
					"internalType": "uint256",
					"name": "remainingToken",
					"type": "uint256"
				}
			],
			"name": "fundtransferevent",
			"type": "event"
		},
		{
			"anonymous": false,
			"inputs": [
				{
					"indexed": false,
					"internalType": "address",
					"name": "_projectAdd",
					"type": "address"
				},
				{
					"indexed": false,
					"internalType": "uint256",
					"name": "noTokens",
					"type": "uint256"
				},
				{
					"indexed": false,
					"internalType": "uint256",
					"name": "_rate",
					"type": "uint256"
				},
				{
					"indexed": false,
					"internalType": "uint256",
					"name": "_Tokens",
					"type": "uint256"
				},
				{
					"indexed": false,
					"internalType": "uint256",
					"name": "sD",
					"type": "uint256"
				},
				{
					"indexed": false,
					"internalType": "uint256",
					"name": "eD",
					"type": "uint256"
				}
			],
			"name": "lProject",
			"type": "event"
		},
		{
			"anonymous": false,
			"inputs": [
				{
					"indexed": false,
					"internalType": "address",
					"name": "paddress",
					"type": "address"
				},
				{
					"indexed": false,
					"internalType": "address",
					"name": "baddress",
					"type": "address"
				},
				{
					"indexed": false,
					"internalType": "uint256",
					"name": "amount",
					"type": "uint256"
				}
			],
			"name": "refundevent",
			"type": "event"
		},
		{
			"inputs": [
				{
					"internalType": "address",
					"name": "",
					"type": "address"
				},
				{
					"internalType": "address",
					"name": "",
					"type": "address"
				}
			],
			"name": "buyers",
			"outputs": [
				{
					"internalType": "uint256",
					"name": "amount",
					"type": "uint256"
				},
				{
					"internalType": "uint256",
					"name": "tokens",
					"type": "uint256"
				},
				{
					"internalType": "uint256",
					"name": "date",
					"type": "uint256"
				}
			],
			"stateMutability": "view",
			"type": "function"
		},
		{
			"inputs": [],
			"name": "counter",
			"outputs": [
				{
					"internalType": "uint256",
					"name": "",
					"type": "uint256"
				}
			],
			"stateMutability": "view",
			"type": "function"
		},
		{
			"inputs": [
				{
					"internalType": "uint256",
					"name": "",
					"type": "uint256"
				}
			],
			"name": "parr",
			"outputs": [
				{
					"internalType": "address",
					"name": "projectAdd",
					"type": "address"
				},
				{
					"internalType": "address payable",
					"name": "owner",
					"type": "address"
				},
				{
					"internalType": "uint256",
					"name": "startDate",
					"type": "uint256"
				},
				{
					"internalType": "uint256",
					"name": "endDate",
					"type": "uint256"
				},
				{
					"internalType": "uint256",
					"name": "listDate",
					"type": "uint256"
				},
				{
					"internalType": "uint256",
					"name": "targetAmount",
					"type": "uint256"
				},
				{
					"internalType": "uint256",
					"name": "noTokens",
					"type": "uint256"
				},
				{
					"internalType": "uint256",
					"name": "rate",
					"type": "uint256"
				},
				{
					"internalType": "uint256",
					"name": "Tokens",
					"type": "uint256"
				},
				{
					"internalType": "uint256",
					"name": "amountGenerated",
					"type": "uint256"
				},
				{
					"internalType": "string",
					"name": "name",
					"type": "string"
				},
				{
					"internalType": "string",
					"name": "symbol",
					"type": "string"
				}
			],
			"stateMutability": "view",
			"type": "function"
		},
		{
			"inputs": [
				{
					"internalType": "address",
					"name": "",
					"type": "address"
				}
			],
			"name": "projects",
			"outputs": [
				{
					"internalType": "address",
					"name": "projectAdd",
					"type": "address"
				},
				{
					"internalType": "address payable",
					"name": "owner",
					"type": "address"
				},
				{
					"internalType": "uint256",
					"name": "startDate",
					"type": "uint256"
				},
				{
					"internalType": "uint256",
					"name": "endDate",
					"type": "uint256"
				},
				{
					"internalType": "uint256",
					"name": "listDate",
					"type": "uint256"
				},
				{
					"internalType": "uint256",
					"name": "targetAmount",
					"type": "uint256"
				},
				{
					"internalType": "uint256",
					"name": "noTokens",
					"type": "uint256"
				},
				{
					"internalType": "uint256",
					"name": "rate",
					"type": "uint256"
				},
				{
					"internalType": "uint256",
					"name": "Tokens",
					"type": "uint256"
				},
				{
					"internalType": "uint256",
					"name": "amountGenerated",
					"type": "uint256"
				},
				{
					"internalType": "string",
					"name": "name",
					"type": "string"
				},
				{
					"internalType": "string",
					"name": "symbol",
					"type": "string"
				}
			],
			"stateMutability": "view",
			"type": "function"
		},
		{
			"stateMutability": "payable",
			"type": "receive"
		},
		{
			"inputs": [
				{
					"internalType": "address",
					"name": "_projectAdd",
					"type": "address"
				},
				{
					"internalType": "uint256",
					"name": "_noTokens",
					"type": "uint256"
				},
				{
					"internalType": "uint256",
					"name": "_rate",
					"type": "uint256"
				},
				{
					"internalType": "uint256",
					"name": "_Tokens",
					"type": "uint256"
				},
				{
					"internalType": "uint256",
					"name": "sD",
					"type": "uint256"
				},
				{
					"internalType": "uint256",
					"name": "eD",
					"type": "uint256"
				}
			],
			"name": "listProject",
			"outputs": [],
			"stateMutability": "nonpayable",
			"type": "function"
		},
		{
			"inputs": [
				{
					"internalType": "uint256",
					"name": "amountTokens",
					"type": "uint256"
				},
				{
					"internalType": "address",
					"name": "_projectAdd",
					"type": "address"
				}
			],
			"name": "caculate",
			"outputs": [
				{
					"internalType": "uint256",
					"name": "",
					"type": "uint256"
				}
			],
			"stateMutability": "nonpayable",
			"type": "function"
		},
		{
			"inputs": [
				{
					"internalType": "address",
					"name": "_projectAdd",
					"type": "address"
				},
				{
					"internalType": "uint256",
					"name": "_amountTokens",
					"type": "uint256"
				}
			],
			"name": "BuyToken",
			"outputs": [],
			"stateMutability": "payable",
			"type": "function"
		},
		{
			"inputs": [
				{
					"internalType": "address",
					"name": "_projectAdd",
					"type": "address"
				},
				{
					"internalType": "address",
					"name": "buyeradd",
					"type": "address"
				}
			],
			"name": "refund",
			"outputs": [],
			"stateMutability": "nonpayable",
			"type": "function"
		},
		{
			"inputs": [
				{
					"internalType": "address",
					"name": "_projectAdd",
					"type": "address"
				}
			],
			"name": "fundTransfer",
			"outputs": [],
			"stateMutability": "nonpayable",
			"type": "function"
		},
		{
			"inputs": [],
			"name": "depositETH",
			"outputs": [],
			"stateMutability": "payable",
			"type": "function"
		},
		{
			"inputs": [
				{
					"internalType": "uint256",
					"name": "_amount",
					"type": "uint256"
				}
			],
			"name": "withdrawETH",
			"outputs": [],
			"stateMutability": "nonpayable",
			"type": "function"
		},
		{
			"inputs": [
				{
					"internalType": "address",
					"name": "add",
					"type": "address"
				}
			],
			"name": "cbalance",
			"outputs": [
				{
					"internalType": "uint256",
					"name": "",
					"type": "uint256"
				}
			],
			"stateMutability": "view",
			"type": "function"
		}
	],
	"bytecode": "0x6080604052600061ffff1660025534801561001957600080fd5b50600160008190555033600160006101000a81548173ffffffffffffffffffffffffffffffffffffffff021916908373ffffffffffffffffffffffffffffffffffffffff160217905550612810806100726000396000f3fe6080604052600436106100ab5760003560e01c8063b80dcd5f11610064578063b80dcd5f1461020c578063cd97b9b514610254578063dd06b66c1461027d578063f14210a614610299578063f6326fb3146102c2578063fdb66359146102cc576100b2565b80632072086a146100b75780633d1d0207146100f65780635e30b8a61461013357806361bc221a1461015c5780637b9274d714610187578063840e78fd146101c4576100b2565b366100b257005b600080fd5b3480156100c357600080fd5b506100de60048036038101906100d991906119d8565b6102f5565b6040516100ed93929190611a31565b60405180910390f35b34801561010257600080fd5b5061011d60048036038101906101189190611a68565b61032c565b60405161012a9190611a95565b60405180910390f35b34801561013f57600080fd5b5061015a600480360381019061015591906119d8565b61034d565b005b34801561016857600080fd5b50610171610566565b60405161017e9190611a95565b60405180910390f35b34801561019357600080fd5b506101ae60048036038101906101a99190611adc565b61056c565b6040516101bb9190611a95565b60405180910390f35b3480156101d057600080fd5b506101eb60048036038101906101e69190611a68565b61062c565b6040516102039c9b9a99989796959493929190611be5565b60405180910390f35b34801561021857600080fd5b50610233600480360381019061022e9190611cad565b6107dc565b60405161024b9c9b9a99989796959493929190611be5565b60405180910390f35b34801561026057600080fd5b5061027b60048036038101906102769190611a68565b61099c565b005b61029760048036038101906102929190611cda565b610cd8565b005b3480156102a557600080fd5b506102c060048036038101906102bb9190611cad565b610ff5565b005b6102ca611263565b005b3480156102d857600080fd5b506102f360048036038101906102ee9190611d1a565b6114c2565b005b6007602052816000526040600020602052806000526040600020600091509150508060000154908060010154908060020154905083565b60008173ffffffffffffffffffffffffffffffffffffffff16319050919050565b6000600560008473ffffffffffffffffffffffffffffffffffffffff1673ffffffffffffffffffffffffffffffffffffffff1681526020019081526020016000209050806002015442116103a057600080fd5b806003015442106103b057600080fd5b6000600760008573ffffffffffffffffffffffffffffffffffffffff1673ffffffffffffffffffffffffffffffffffffffff16815260200190815260200160002060003373ffffffffffffffffffffffffffffffffffffffff1673ffffffffffffffffffffffffffffffffffffffff1681526020019081526020016000209050600081600001541161044157600080fd5b60003390508473ffffffffffffffffffffffffffffffffffffffff166323b872dd333085600101546040518463ffffffff1660e01b815260040161048793929190611da7565b6020604051808303816000875af11580156104a6573d6000803e3d6000fd5b505050506040513d601f19601f820116820180604052508101906104ca9190611e16565b508073ffffffffffffffffffffffffffffffffffffffff166108fc83600001549081150290604051600060405180830381858888f19350505050158015610515573d6000803e3d6000fd5b50600082600001819055507f3efd89b0c1914ca8b96ed288da840d94358b17e2155ee104f6b969b83346750e8585846000015460405161055793929190611da7565b60405180910390a15050505050565b60025481565b600080600560008473ffffffffffffffffffffffffffffffffffffffff1673ffffffffffffffffffffffffffffffffffffffff1681526020019081526020016000209050600084905060006105ce83600701548361192490919063ffffffff16565b90506105e783600801548261193a90919063ffffffff16565b90507f2a83d2ac28febb2f424fc06aec818a9154ae142fbd97d9f14c9e00b91b4e68f9816040516106189190611a95565b60405180910390a180935050505092915050565b60056020528060005260406000206000915090508060000160009054906101000a900473ffffffffffffffffffffffffffffffffffffffff16908060010160009054906101000a900473ffffffffffffffffffffffffffffffffffffffff169080600201549080600301549080600401549080600501549080600601549080600701549080600801549080600901549080600a0180546106cb90611e72565b80601f01602080910402602001604051908101604052809291908181526020018280546106f790611e72565b80156107445780601f1061071957610100808354040283529160200191610744565b820191906000526020600020905b81548152906001019060200180831161072757829003601f168201915b50505050509080600b01805461075990611e72565b80601f016020809104026020016040519081016040528092919081815260200182805461078590611e72565b80156107d25780601f106107a7576101008083540402835291602001916107d2565b820191906000526020600020905b8154815290600101906020018083116107b557829003601f168201915b505050505090508c565b600681815481106107ec57600080fd5b90600052602060002090600c02016000915090508060000160009054906101000a900473ffffffffffffffffffffffffffffffffffffffff16908060010160009054906101000a900473ffffffffffffffffffffffffffffffffffffffff169080600201549080600301549080600401549080600501549080600601549080600701549080600801549080600901549080600a01805461088b90611e72565b80601f01602080910402602001604051908101604052809291908181526020018280546108b790611e72565b80156109045780601f106108d957610100808354040283529160200191610904565b820191906000526020600020905b8154815290600101906020018083116108e757829003601f168201915b50505050509080600b01805461091990611e72565b80601f016020809104026020016040519081016040528092919081815260200182805461094590611e72565b80156109925780601f1061096757610100808354040283529160200191610992565b820191906000526020600020905b81548152906001019060200180831161097557829003601f168201915b505050505090508c565b806000600560008373ffffffffffffffffffffffffffffffffffffffff1673ffffffffffffffffffffffffffffffffffffffff168152602001908152602001600020905060008160030154603c6109f39190611ed2565b9050804211610a0157600080fd5b6000600560008673ffffffffffffffffffffffffffffffffffffffff1673ffffffffffffffffffffffffffffffffffffffff16815260200190815260200160002090503373ffffffffffffffffffffffffffffffffffffffff168160010160009054906101000a900473ffffffffffffffffffffffffffffffffffffffff1673ffffffffffffffffffffffffffffffffffffffff1614610aa057600080fd5b8060010160009054906101000a900473ffffffffffffffffffffffffffffffffffffffff1673ffffffffffffffffffffffffffffffffffffffff166108fc82600901549081150290604051600060405180830381858888f19350505050158015610b0e573d6000803e3d6000fd5b50600081600901819055508473ffffffffffffffffffffffffffffffffffffffff1663a9059cbb338773ffffffffffffffffffffffffffffffffffffffff166370a08231306040518263ffffffff1660e01b8152600401610b6f9190611f28565b602060405180830381865afa158015610b8c573d6000803e3d6000fd5b505050506040513d601f19601f82011682018060405250810190610bb09190611f58565b6040518363ffffffff1660e01b8152600401610bcd929190611f85565b6020604051808303816000875af1158015610bec573d6000803e3d6000fd5b505050506040513d601f19601f82011682018060405250810190610c109190611e16565b5060008573ffffffffffffffffffffffffffffffffffffffff166370a08231306040518263ffffffff1660e01b8152600401610c4c9190611f28565b602060405180830381865afa158015610c69573d6000803e3d6000fd5b505050506040513d601f19601f82011682018060405250810190610c8d9190611f58565b90507f7e20f27019f11649a50d47d4bc68c74ba2a78d7e3fce7684031ee40c27ff0e508633846009015484604051610cc89493929190611fae565b60405180910390a1505050505050565b6000600560008473ffffffffffffffffffffffffffffffffffffffff1673ffffffffffffffffffffffffffffffffffffffff168152602001908152602001600020905080600201544211610d2b57600080fd5b80600301544210610d3b57600080fd5b6000610d47838561056c565b9050348114610d5557600080fd5b600034905034836009016000828254610d6e9190611ed2565b9250508190555034600760008773ffffffffffffffffffffffffffffffffffffffff1673ffffffffffffffffffffffffffffffffffffffff16815260200190815260200160002060003373ffffffffffffffffffffffffffffffffffffffff1673ffffffffffffffffffffffffffffffffffffffff168152602001908152602001600020600001819055506000610e1284600801548361192490919063ffffffff16565b9050610e2b84600701548261193a90919063ffffffff16565b905080600760008873ffffffffffffffffffffffffffffffffffffffff1673ffffffffffffffffffffffffffffffffffffffff16815260200190815260200160002060003373ffffffffffffffffffffffffffffffffffffffff1673ffffffffffffffffffffffffffffffffffffffff1681526020019081526020016000206001018190555042600760008873ffffffffffffffffffffffffffffffffffffffff1673ffffffffffffffffffffffffffffffffffffffff16815260200190815260200160002060003373ffffffffffffffffffffffffffffffffffffffff1673ffffffffffffffffffffffffffffffffffffffff168152602001908152602001600020600201819055508573ffffffffffffffffffffffffffffffffffffffff1663a9059cbb33836040518363ffffffff1660e01b8152600401610f70929190611f85565b6020604051808303816000875af1158015610f8f573d6000803e3d6000fd5b505050506040513d601f19601f82011682018060405250810190610fb39190611e16565b507f226105aaf2509738ee90a92538444bbd89801a15e71a986c00cca1a4c1d309da3382604051610fe5929190611f85565b60405180910390a1505050505050565b3373ffffffffffffffffffffffffffffffffffffffff16600160009054906101000a900473ffffffffffffffffffffffffffffffffffffffff1673ffffffffffffffffffffffffffffffffffffffff1614611085576040517f08c379a000000000000000000000000000000000000000000000000000000000815260040161107c9061203f565b60405180910390fd5b7387b1f4cf9bd63f7bbd3ee1ad04e8f5254034934773ffffffffffffffffffffffffffffffffffffffff1663095ea7b373a61ca04df33b72b235a8a28cfb535bb7a5271b70836040518363ffffffff1660e01b81526004016110e8929190611f85565b6020604051808303816000875af1158015611107573d6000803e3d6000fd5b505050506040513d601f19601f8201168201806040525081019061112b9190611e16565b50600460009054906101000a900473ffffffffffffffffffffffffffffffffffffffff1673ffffffffffffffffffffffffffffffffffffffff166380500d20600360009054906101000a900473ffffffffffffffffffffffffffffffffffffffff1683306040518463ffffffff1660e01b81526004016111ad9392919061205f565b600060405180830381600087803b1580156111c757600080fd5b505af11580156111db573d6000803e3d6000fd5b5050505060006111f4824761195090919063ffffffff16565b9050600160009054906101000a900473ffffffffffffffffffffffffffffffffffffffff1673ffffffffffffffffffffffffffffffffffffffff166108fc829081150290604051600060405180830381858888f1935050505015801561125e573d6000803e3d6000fd5b505050565b3373ffffffffffffffffffffffffffffffffffffffff16600160009054906101000a900473ffffffffffffffffffffffffffffffffffffffff1673ffffffffffffffffffffffffffffffffffffffff16146112f3576040517f08c379a00000000000000000000000000000000000000000000000000000000081526004016112ea9061203f565b60405180910390fd5b7388757f2f99175387ab4c6a4b3067c77a695b034973ffffffffffffffffffffffffffffffffffffffff16630261bf8b6040518163ffffffff1660e01b8152600401602060405180830381865afa158015611352573d6000803e3d6000fd5b505050506040513d601f19601f8201168201806040525081019061137691906120ab565b600360006101000a81548173ffffffffffffffffffffffffffffffffffffffff021916908373ffffffffffffffffffffffffffffffffffffffff16021790555073a61ca04df33b72b235a8a28cfb535bb7a5271b70600460006101000a81548173ffffffffffffffffffffffffffffffffffffffff021916908373ffffffffffffffffffffffffffffffffffffffff160217905550600460009054906101000a900473ffffffffffffffffffffffffffffffffffffffff1673ffffffffffffffffffffffffffffffffffffffff1663474cf53d47600360009054906101000a900473ffffffffffffffffffffffffffffffffffffffff163060006040518563ffffffff1660e01b815260040161148e9392919061212b565b6000604051808303818588803b1580156114a757600080fd5b505af11580156114bb573d6000803e3d6000fd5b5050505050565b6000600560008873ffffffffffffffffffffffffffffffffffffffff1673ffffffffffffffffffffffffffffffffffffffff1681526020019081526020016000209050868160000160006101000a81548173ffffffffffffffffffffffffffffffffffffffff021916908373ffffffffffffffffffffffffffffffffffffffff160217905550338160010160006101000a81548173ffffffffffffffffffffffffffffffffffffffff021916908373ffffffffffffffffffffffffffffffffffffffff1602179055504281600401819055508581600601819055508281600201819055508181600301819055508481600701819055508381600801819055508673ffffffffffffffffffffffffffffffffffffffff166306fdde036040518163ffffffff1660e01b8152600401600060405180830381865afa15801561160c573d6000803e3d6000fd5b505050506040513d6000823e3d601f19601f820116820180604052508101906116359190612288565b81600a0190816116459190612473565b508673ffffffffffffffffffffffffffffffffffffffff166395d89b416040518163ffffffff1660e01b8152600401600060405180830381865afa158015611691573d6000803e3d6000fd5b505050506040513d6000823e3d601f19601f820116820180604052508101906116ba9190612288565b81600b0190816116ca9190612473565b5060068190806001815401808255809150506001900390600052602060002090600c02016000909190919091506000820160009054906101000a900473ffffffffffffffffffffffffffffffffffffffff168160000160006101000a81548173ffffffffffffffffffffffffffffffffffffffff021916908373ffffffffffffffffffffffffffffffffffffffff1602179055506001820160009054906101000a900473ffffffffffffffffffffffffffffffffffffffff168160010160006101000a81548173ffffffffffffffffffffffffffffffffffffffff021916908373ffffffffffffffffffffffffffffffffffffffff1602179055506002820154816002015560038201548160030155600482015481600401556005820154816005015560068201548160060155600782015481600701556008820154816008015560098201548160090155600a820181600a019081611829919061255b565b50600b820181600b01908161183e919061255b565b5050508673ffffffffffffffffffffffffffffffffffffffff166323b872dd3330896040518463ffffffff1660e01b815260040161187e93929190611da7565b6020604051808303816000875af115801561189d573d6000803e3d6000fd5b505050506040513d601f19601f820116820180604052508101906118c19190611e16565b50600260008154809291906118d590612643565b91905055507f0101a7f6e5449ba9069e9c914ebf6f27bbdea7b921aea00dd5f8c96cd086712d8787878787876040516119139695949392919061268b565b60405180910390a150505050505050565b6000818361193291906126ec565b905092915050565b600081836119489190612775565b905092915050565b6000818361195e91906127a6565b905092915050565b6000604051905090565b600080fd5b600080fd5b600073ffffffffffffffffffffffffffffffffffffffff82169050919050565b60006119a58261197a565b9050919050565b6119b58161199a565b81146119c057600080fd5b50565b6000813590506119d2816119ac565b92915050565b600080604083850312156119ef576119ee611970565b5b60006119fd858286016119c3565b9250506020611a0e858286016119c3565b9150509250929050565b6000819050919050565b611a2b81611a18565b82525050565b6000606082019050611a466000830186611a22565b611a536020830185611a22565b611a606040830184611a22565b949350505050565b600060208284031215611a7e57611a7d611970565b5b6000611a8c848285016119c3565b91505092915050565b6000602082019050611aaa6000830184611a22565b92915050565b611ab981611a18565b8114611ac457600080fd5b50565b600081359050611ad681611ab0565b92915050565b60008060408385031215611af357611af2611970565b5b6000611b0185828601611ac7565b9250506020611b12858286016119c3565b9150509250929050565b611b258161199a565b82525050565b6000611b368261197a565b9050919050565b611b4681611b2b565b82525050565b600081519050919050565b600082825260208201905092915050565b60005b83811015611b86578082015181840152602081019050611b6b565b83811115611b95576000848401525b50505050565b6000601f19601f8301169050919050565b6000611bb782611b4c565b611bc18185611b57565b9350611bd1818560208601611b68565b611bda81611b9b565b840191505092915050565b600061018082019050611bfb600083018f611b1c565b611c08602083018e611b3d565b611c15604083018d611a22565b611c22606083018c611a22565b611c2f608083018b611a22565b611c3c60a083018a611a22565b611c4960c0830189611a22565b611c5660e0830188611a22565b611c64610100830187611a22565b611c72610120830186611a22565b818103610140830152611c858185611bac565b9050818103610160830152611c9a8184611bac565b90509d9c50505050505050505050505050565b600060208284031215611cc357611cc2611970565b5b6000611cd184828501611ac7565b91505092915050565b60008060408385031215611cf157611cf0611970565b5b6000611cff858286016119c3565b9250506020611d1085828601611ac7565b9150509250929050565b60008060008060008060c08789031215611d3757611d36611970565b5b6000611d4589828a016119c3565b9650506020611d5689828a01611ac7565b9550506040611d6789828a01611ac7565b9450506060611d7889828a01611ac7565b9350506080611d8989828a01611ac7565b92505060a0611d9a89828a01611ac7565b9150509295509295509295565b6000606082019050611dbc6000830186611b1c565b611dc96020830185611b1c565b611dd66040830184611a22565b949350505050565b60008115159050919050565b611df381611dde565b8114611dfe57600080fd5b50565b600081519050611e1081611dea565b92915050565b600060208284031215611e2c57611e2b611970565b5b6000611e3a84828501611e01565b91505092915050565b7f4e487b7100000000000000000000000000000000000000000000000000000000600052602260045260246000fd5b60006002820490506001821680611e8a57607f821691505b602082108103611e9d57611e9c611e43565b5b50919050565b7f4e487b7100000000000000000000000000000000000000000000000000000000600052601160045260246000fd5b6000611edd82611a18565b9150611ee883611a18565b9250827fffffffffffffffffffffffffffffffffffffffffffffffffffffffffffffffff03821115611f1d57611f1c611ea3565b5b828201905092915050565b6000602082019050611f3d6000830184611b1c565b92915050565b600081519050611f5281611ab0565b92915050565b600060208284031215611f6e57611f6d611970565b5b6000611f7c84828501611f43565b91505092915050565b6000604082019050611f9a6000830185611b1c565b611fa76020830184611a22565b9392505050565b6000608082019050611fc36000830187611b1c565b611fd06020830186611b1c565b611fdd6040830185611a22565b611fea6060830184611a22565b95945050505050565b7f4f6e6c7920617574686f72697a65206d616e6167657220616363657373206974600082015250565b6000612029602083611b57565b915061203482611ff3565b602082019050919050565b600060208201905081810360008301526120588161201c565b9050919050565b60006060820190506120746000830186611b1c565b6120816020830185611a22565b61208e6040830184611b1c565b949350505050565b6000815190506120a5816119ac565b92915050565b6000602082840312156120c1576120c0611970565b5b60006120cf84828501612096565b91505092915050565b6000819050919050565b600061ffff82169050919050565b6000819050919050565b600061211561211061210b846120d8565b6120f0565b6120e2565b9050919050565b612125816120fa565b82525050565b60006060820190506121406000830186611b1c565b61214d6020830185611b1c565b61215a604083018461211c565b949350505050565b600080fd5b600080fd5b7f4e487b7100000000000000000000000000000000000000000000000000000000600052604160045260246000fd5b6121a482611b9b565b810181811067ffffffffffffffff821117156121c3576121c261216c565b5b80604052505050565b60006121d6611966565b90506121e2828261219b565b919050565b600067ffffffffffffffff8211156122025761220161216c565b5b61220b82611b9b565b9050602081019050919050565b600061222b612226846121e7565b6121cc565b90508281526020810184848401111561224757612246612167565b5b612252848285611b68565b509392505050565b600082601f83011261226f5761226e612162565b5b815161227f848260208601612218565b91505092915050565b60006020828403121561229e5761229d611970565b5b600082015167ffffffffffffffff8111156122bc576122bb611975565b5b6122c88482850161225a565b91505092915050565b60008190508160005260206000209050919050565b60006020601f8301049050919050565b600082821b905092915050565b6000600883026123337fffffffffffffffffffffffffffffffffffffffffffffffffffffffffffffffff826122f6565b61233d86836122f6565b95508019841693508086168417925050509392505050565b600061237061236b61236684611a18565b6120f0565b611a18565b9050919050565b6000819050919050565b61238a83612355565b61239e61239682612377565b848454612303565b825550505050565b600090565b6123b36123a6565b6123be818484612381565b505050565b5b818110156123e2576123d76000826123ab565b6001810190506123c4565b5050565b601f821115612427576123f8816122d1565b612401846122e6565b81016020851015612410578190505b61242461241c856122e6565b8301826123c3565b50505b505050565b600082821c905092915050565b600061244a6000198460080261242c565b1980831691505092915050565b60006124638383612439565b9150826002028217905092915050565b61247c82611b4c565b67ffffffffffffffff8111156124955761249461216c565b5b61249f8254611e72565b6124aa8282856123e6565b600060209050601f8311600181146124dd57600084156124cb578287015190505b6124d58582612457565b86555061253d565b601f1984166124eb866122d1565b60005b82811015612513578489015182556001820191506020850194506020810190506124ee565b86831015612530578489015161252c601f891682612439565b8355505b6001600288020188555050505b505050505050565b60008154905061255481611e72565b9050919050565b818103612569575050612641565b61257282612545565b67ffffffffffffffff81111561258b5761258a61216c565b5b6125958254611e72565b6125a08282856123e6565b6000601f8311600181146125cf57600084156125bd578287015490505b6125c78582612457565b86555061263a565b601f1984166125dd876122d1565b96506125e8866122d1565b60005b82811015612610578489015482556001820191506001850194506020810190506125eb565b8683101561262d5784890154612629601f891682612439565b8355505b6001600288020188555050505b5050505050505b565b600061264e82611a18565b91507fffffffffffffffffffffffffffffffffffffffffffffffffffffffffffffffff82036126805761267f611ea3565b5b600182019050919050565b600060c0820190506126a06000830189611b1c565b6126ad6020830188611a22565b6126ba6040830187611a22565b6126c76060830186611a22565b6126d46080830185611a22565b6126e160a0830184611a22565b979650505050505050565b60006126f782611a18565b915061270283611a18565b9250817fffffffffffffffffffffffffffffffffffffffffffffffffffffffffffffffff048311821515161561273b5761273a611ea3565b5b828202905092915050565b7f4e487b7100000000000000000000000000000000000000000000000000000000600052601260045260246000fd5b600061278082611a18565b915061278b83611a18565b92508261279b5761279a612746565b5b828204905092915050565b60006127b182611a18565b91506127bc83611a18565b9250828210156127cf576127ce611ea3565b5b82820390509291505056fea2646970667358221220451cb796e1445aac2f2b29197ad1c15aca0d5ffb7f63db32316ec85b6af7a84264736f6c634300080f0033",
	"immutableReferences": {},
	"source": "// SPDX-License-Identifier: MIT\npragma solidity ^0.8.4;\nimport \"@openzeppelin/contracts/token/ERC20/ERC20.sol\";\nimport \"@openzeppelin/contracts/utils/math/SafeMath.sol\";\n// import \"@openzeppelin/contracts/token/ERC20/IERC20.sol\";\nimport \"@openzeppelin/contracts/security/ReentrancyGuard.sol\";\n\ninterface IWETHGateway {\n    function depositETH(\n        address lendingPool,\n        address onBehalfOf,\n        uint16 referralCode\n    ) external payable;\n    function withdrawETH(\n        address lendingPool,\n        uint256 amount,\n        address onBehalfOf\n    ) external;\n    function repayETH(\n        address lendingPool,\n        uint256 amount,\n        uint256 rateMode,\n        address onBehalfOf\n    ) external payable;\n    function borrowETH(\n        address lendingPool,\n        uint256 amount,\n        uint256 interesRateMode,\n        uint16 referralCode\n    ) external;\n    function getWETHAddress() external view returns (address);\n}\n\ninterface IPoolAddressesProvider {\n    function getLendingPool() external view returns (address);\n}\n\ninterface IERC201{\n    event Transfer(address indexed from, address indexed to, uint256 value);\n    /**\n     * @dev Emitted when the allowance of a `spender` for an `owner` is set by\n     * a call to {approve}. `value` is the new allowance.\n     */\n    event Approval(address indexed owner, address indexed spender, uint256 value);\n    /**\n     * @dev Returns the amount of tokens in existence.\n     */\n    function totalSupply() external view returns (uint256);\n    /**\n     * @dev Returns the amount of tokens owned by `account`.\n     */\n    function balanceOf(address account) external view returns (uint256);\n    /**\n     * @dev Moves `amount` tokens from the caller's account to `to`.\n     *\n     * Returns a boolean value indicating whether the operation succeeded.\n     *\n     * Emits a {Transfer} event.\n     */\n    function transfer(address to, uint256 amount) external returns (bool);\n    /**\n     * @dev Returns the remaining number of tokens that `spender` will be\n     * allowed to spend on behalf of `owner` through {transferFrom}. This is\n     * zero by default.\n     *\n     * This value changes when {approve} or {transferFrom} are called.\n     */\n    function allowance(address owner, address spender) external view returns (uint256);\n    /**\n     * @dev Sets `amount` as the allowance of `spender` over the caller's tokens.\n     *\n     * Returns a boolean value indicating whether the operation succeeded.\n     *\n     * IMPORTANT: Beware that changing an allowance with this method brings the risk\n     * that someone may use both the old and the new allowance by unfortunate\n     * transaction ordering. One possible solution to mitigate this race\n     * condition is to first reduce the spender's allowance to 0 and set the\n     * desired value afterwards:\n     * https://github.com/ethereum/EIPs/issues/20#issuecomment-263524729\n     *\n     * Emits an {Approval} event.\n     */\n    function approve(address spender, uint256 amount) external returns (bool);\n    /**\n     * @dev Moves `amount` tokens from `from` to `to` using the\n     * allowance mechanism. `amount` is then deducted from the caller's\n     * allowance.\n     *\n     * Returns a boolean value indicating whether the operation succeeded.\n     *\n     * Emits a {Transfer} event.\n     */\n    function transferFrom(\n        address from,\n        address to,\n        uint256 amount\n    ) external returns (bool);\n    function name() external view returns (string memory);\n    function symbol() external view returns (string memory);\n}\n\ncontract ICOLaunchpad is ReentrancyGuard{\n    using SafeMath for uint;\n    address private manager;\n    uint256 public counter = uint16(0);\n    address poolAddress;\n    IWETHGateway ethContract;\n    event lProject(address _projectAdd,uint noTokens,uint _rate,uint _Tokens,uint sD,uint eD);\n    event cal(uint );\n    event buyT (address buyer,uint numberofTokens);\n    event refundevent(address paddress,address baddress,uint amount);\n    event fundtransferevent(address paddress,address tokenOwneraddress,uint amount,uint remainingToken);\n    struct Project{\n        address projectAdd;\n        address payable owner;\n        uint startDate;\n        uint endDate;\n        uint listDate;\n        uint targetAmount;\n        uint noTokens;\n        uint rate;\n        uint Tokens;\n        uint amountGenerated;\n        string name;\n        string symbol;\n    }\n    struct buyerData{\n        uint amount;\n        uint tokens;\n        uint date ;\n    }\n    mapping(address => Project) public projects;\n    // mapping(address => buyerData) public buyers;\n    Project[] public  parr;\n    mapping(address => mapping (address=>buyerData)) public buyers;\n    constructor(){\n        manager = msg.sender;\n    }\n     modifier onlyManger{\n        require(manager == msg.sender,\"Only authorize manager access it\");\n        _;\n    }\n    modifier lock1(address _projectAdd){\n        Project storage p = projects[_projectAdd];\n        uint timePeriod = 60 + p.endDate;\n        require(block.timestamp > timePeriod);\n        _;\n    }\n    function listProject(address _projectAdd,uint _noTokens,uint _rate,uint _Tokens,uint sD,uint eD) external {\n        Project  storage newP = projects[_projectAdd];\n        newP.projectAdd = _projectAdd;\n        newP.owner = payable(msg.sender);\n        newP.listDate = block.timestamp;\n        newP.noTokens = _noTokens;\n        newP.startDate = sD;\n        newP.endDate = eD;\n        newP.rate = _rate;\n        newP.Tokens = _Tokens;\n        newP.name = IERC201(_projectAdd).name();\n        newP.symbol= IERC201(_projectAdd).symbol();\n        parr.push(newP);\n        IERC201(_projectAdd).transferFrom(msg.sender,address(this),_noTokens);\n        counter++;\n        emit lProject (_projectAdd,_noTokens, _rate, _Tokens, sD, eD);\n    }\n\n    function caculate(uint amountTokens,address _projectAdd) public returns(uint){\n         Project  storage p = projects[_projectAdd];\n        uint amount =amountTokens;\n        // p.amountGenerated += msg.value;\n        // contributors[_projectAdd][msg.sender].amount = amountTokens;\n        uint eth = amount.mul(p.rate);\n        eth = eth.div(p.Tokens);\n        emit cal (eth);\n        return(eth);\n    }\n\n    function BuyToken(address _projectAdd, uint _amountTokens) public payable{\n        Project  storage p = projects[_projectAdd];\n        require(block.timestamp > p.startDate);\n        require(block.timestamp < p.endDate);\n        uint eth = caculate(_amountTokens,_projectAdd);\n        require(eth == msg.value);\n        uint amount =msg.value;\n        p.amountGenerated += msg.value;\n        buyers[_projectAdd][msg.sender].amount = msg.value;\n        uint noTokens = amount.mul(p.Tokens);\n        noTokens = noTokens.div(p.rate);\n        buyers[_projectAdd][msg.sender].tokens= noTokens;\n        buyers[_projectAdd][msg.sender].date = block.timestamp;\n        // emit Fproject(msg.sender,noTokens);\n        IERC201(_projectAdd).transfer(msg.sender,noTokens);\n        emit buyT (msg.sender,noTokens);\n    }\n    function refund(address _projectAdd,address buyeradd) external{\n        Project  storage p = projects[_projectAdd];\n        require(block.timestamp > p.startDate);\n        require(block.timestamp < p.endDate);\n        buyerData storage b = buyers[_projectAdd][msg.sender];\n        require( b.amount > 0);\n        address payable buyer = payable(msg.sender);\n        IERC201(_projectAdd).transferFrom(msg.sender,address(this),b.tokens);\n        buyer.transfer(b.amount);\n        b.amount=0;\n        emit refundevent(_projectAdd,buyeradd,b.amount);\n    }\n    receive() external payable {\n    }\n    function fundTransfer(address _projectAdd) public lock1(_projectAdd){\n        Project storage p = projects[_projectAdd];\n        require(p.owner == msg.sender);\n        p.owner.transfer(p.amountGenerated);\n        p.amountGenerated = 0;\n        IERC201(_projectAdd).transfer(msg.sender,IERC201(_projectAdd).balanceOf(address(this)));\n        uint remainingT = IERC201(_projectAdd).balanceOf(address(this));\n        emit fundtransferevent(_projectAdd,msg.sender,p.amountGenerated,remainingT);\n    }\n    function depositETH() public payable onlyManger{\n        poolAddress = IPoolAddressesProvider(0x88757f2f99175387aB4C6a4b3067c77A695b0349).getLendingPool();\n        ethContract = IWETHGateway(0xA61ca04DF33B72b235a8A28CfB535bb7A5271B70);\n        ethContract.depositETH{value: address(this).balance}(poolAddress, address(this), 0);\n    }\n    function withdrawETH(uint256 _amount) public onlyManger{\n        IERC201(0x87b1f4cf9BD63f7BBD3eE1aD04E8F52540349347).approve(\n            0xA61ca04DF33B72b235a8A28CfB535bb7A5271B70,\n            _amount\n        );\n        ethContract.withdrawETH(poolAddress, _amount,address(this));\n        uint profit = address(this).balance.sub(_amount);\n        payable(manager).transfer(profit);\n    }\n    function cbalance(address add)external view returns(uint){\n        return add.balance;\n    }\n\n    \n}",
	"sourcePath": "/home/codezeros/Documents/ico-launchpad/contracts/Launch.sol",
	"compiler": {
		"name": "solc",
		"version": "0.8.15+commit.e14f2714.Emscripten.clang"
	},
	"schemaVersion": "3.4.8",
	"updatedAt": "2022-08-04T12:56:03.183Z",
	"devdoc": {
		"kind": "dev",
		"methods": {},
		"version": 1
	},
	"userdoc": {
		"kind": "user",
		"methods": {},
		"version": 1
	}
}